:20009700AE82AF83EE4F600900001EBEFF011F80F322AE82AF83EE4F601C7C737D0000EC3E
:1700B70024FFFAED34FFFB8A048B05EA4B70EF1EBEFF011F80E022CB
:03008200751000F6
:2000CE00AF8253A01FEFC42354E0FFE5A0541F4FF5A0227F00EF2408F876FF0FBF080040AB
:2000EE00F47580FF7582071200CE7582001200CE7580007582061200CE7582000200CE7547
:20010E0080FF7582071200CE7582001200CEE5109007C693F4F5807582061200CE7582007B
:20012E001200CEE5102408F987807582071200CE7582001200CE051074F82510500375106D
:20014E000022AF82BF41047F0A80027F0BC3740F951174279512500675110F751227EF905F
:20016E0007B893FF8F0830000A9007C4E493FE7F0080047EFF7F008E09750AFF750BFF7577
:20018E0018E875190385118285128312066BAE82AF83EE24B8F582EF3407F583E493FF8FC1
:2001AE000C75186475190085118285128312066B75180A751900120767AE82AF83EE24B820
:2001CE00F582EF3407F583E493FF747F5FF50D75180A75190085118285128312066B7518C7
:2001EE000A751900120767AE82AF83EE24B8F582EF3407F583E493FF8F0E75180A7519005C
:1D020E00851182851283120767AE82AF83EE24B8F582EF3407F583E493FF8F0F22A6
:1607B800C0F9A4B0999282F880908883BFFF0102040810204080A1
:20022B00AF8253A01FEFC42354E0FFE5A0541F4FF5A022020252E582F4F580758204120234
:20024B002B75820002022B7580FF75820412022B75820002022B75800075820412022B754A
:05026B00820002022BDD
:20027000759850438E0175D7C075D6FD438E10438E04D2ACD2AF2285829910990280FB222C
:190290003098067E017F0080047E007F008E822210980280FB85998222EF
:2002A900D2A1D2A0900005120097C2A1900005120097C2A022C2A1D2A0900005120097D208
:2002C900A1900005020097AF827E00EF23540124FF92A18F05ED2DFFD2A0900005C007C09F
:2002E90006120097C2A0900002120097D006D0070EBE080040D5D2A1D2A0900005120097F0
:20030900C2A0227F00D2A17E008F05ED2DFDD2A0900005C006C005120097D005D006A2A10C
:20032900E4334DFFC2A0900002C007C006120097D006D0070EBE080040CFD2A1D2A0900022
:2003490005C007120097D007C2A08F822222AF82C0071202A97582901202D0D00774404F97
:1D036900F5821202D01202A97582911202D012030CAF82C0071202BED0078F8222FE
:20038600C2AFC2949001F4120097D294900032120097A294E433FFD2AF900190C0071200CA
:2003A60097D0078F8222AF827E00C2AFC294900002C007C006120097D006D007EF54012443
:2003C600FF929490003CC007C006120097D294900002120097D006D007D2AFEFC313FF0E4F
:2003E600BE080040C5227F007E00EFC313FFC2AFC294900002C007C006120097D2949000C4
:2004060002120097D006D00730940343078090003CC007C006120097D006D007D2AF0EBEF1
:20042600080040C68F82221203867582CC1203AC7582441203AC9002EE1200A9120386750F
:2004460082CC1203AC7582BE1203AC1203ECAF82C0071203ECAE82C006120386D006D007D9
:0E0466008E05E4FEFCEF4EF582EC4DF5832290
:04000000020029329F
:03000B0002048864
:0100130032BA
:01001B0032B2
:0300230002065B77
:12008500751301751400E4F516F517C201D2020200269D
:030026000206448B
:20047400538E7F5389F0438901758CF8758A30D2A9D28C22C021C0E0C0F0C082C083C007CF
:20049400C006C005C004C003C002C001C000C0D075D000758CF8758A3012010D74FD25132D
:2004B400501A0516E4B516020517C3E5169496E51794004007E4F516F517D202D0D0D000D8
:2004D400D001D002D003D004D005D006D007D083D082D0F0D0E0D021327580FFE5A0541F18
:2004F40044E0F5A053A01F758000E5A0541F44C0F5A053A01F12023E1200E11202701203A7
:20051400561203860204747402B5131720B3149000141200A920B30B120261751303D2020F
:2005340030B3FD74FD2513502E20B2149000141200A920B20B751401751303D20230B2FDB6
:2005540020B1149000141200A920B10B751402751304D20230B1FD2220010122C2018515DB
:20057400821202877401B5130E85158212024174AAB515037513022220020122C202740179
:20059400B51447758203120357AF828F18751900751A00751B00901F40E4F5F01206F9ACD7
:2005B40082AD83AEF0FF7518FFE4F519F51AF51B8C828D838EF0EF120694AC82AD838C1109
:2005D4008D12C2007582410201507402B5146012042DAE82AF837D00EF30E70E7D01EEF4E6
:2005F400FBEFF4FCED2BFEE43CFF8E188F19751A00751B00900271E4F5F0C0051206F9AB1E
:2006140082AC83AEF0FF751864E4F519F51AF51B8B828C838EF0EF120694AB82AC83D00510
:200634008B118C12ED24FF9200758242020150221204ED30010312056C12051B74FD251387
:1706540050F112058C80EC1098028005859915D201109902800032AD
:20066B007A10E4FBFCE58225E0F582E58333F583EB33FBEC33FCEB9518F5F0EC9519400683
:09068B00FCABF0438201DADD2230
:20069400FB7A20E4FCFDFEFFE5822582F582E58333F583E5F033F5F0EB33FB4017DAE9809F
:2006B40042E5822582F582E58333F583E5F033F5F0EB33FBEC33FCED33FDEE33FEEF33FFCE
:2006D400EC9518ED9519EE951AEF951B4013EC9518FCED9519FDEE951AFEEF951BFF438218
:0506F40001DABEEB225B
:06005800E478FFF6D8FD7C
:200036007900E94400601B7A009007CE780175A000E493F2A308B8000205A0D9F4DAF2759B
:02005600A0FF09
:2006F900AAF0FBE5828518F0A4FCADF0E5838518F0A42DFDE435F0FEE5828519F0A42DFD8E
:20071900E5F03EFEE433FFEA8518F0A42EFEE5F03FFFE5838519F0A42EFEE5F03FFFE582FF
:20073900851AF0A42EFEE5F03FFFEB8518F0A42FFFEA8519F0A42FFFE583851AF0A42FFFD1
:0E075900E582851BF0A42F8EF08D838C82220A
:20076700E518451960467A01E51825E0F518E519334012F519E5829518E583951940030ADF
:2007870080E6C3E51913F519E51813F518C3E5829518F5F0E58395194005F58385F082C3A4
:0D07A700E51913F519E51813F518DAE1222C
:20005E007800E84400600A790175A000E4F309D8FC7800E84400600C7900900001E4F0A3A0
:04007E00D8FCD9FAD7
:0D0029007581211207B4E5826003020026F4
:0407B4007582002228
:00000001FF
